{
  "_format": "hh-sol-artifact-1",
  "contractName": "Voting",
  "sourceName": "contracts/Voting.sol",
  "abi": [
    {
      "inputs": [
        {
          "internalType": "string[]",
          "name": "initialCandidates",
          "type": "string[]"
        }
      ],
      "stateMutability": "nonpayable",
      "type": "constructor"
    },
    {
      "anonymous": false,
      "inputs": [
        {
          "indexed": true,
          "internalType": "uint256",
          "name": "candidateId",
          "type": "uint256"
        },
        {
          "indexed": false,
          "internalType": "string",
          "name": "name",
          "type": "string"
        }
      ],
      "name": "CandidateAdded",
      "type": "event"
    },
    {
      "anonymous": false,
      "inputs": [],
      "name": "ElectionEnded",
      "type": "event"
    },
    {
      "anonymous": false,
      "inputs": [],
      "name": "ElectionStarted",
      "type": "event"
    },
    {
      "anonymous": false,
      "inputs": [
        {
          "indexed": true,
          "internalType": "address",
          "name": "voter",
          "type": "address"
        },
        {
          "indexed": true,
          "internalType": "uint256",
          "name": "candidateId",
          "type": "uint256"
        }
      ],
      "name": "Voted",
      "type": "event"
    },
    {
      "inputs": [
        {
          "internalType": "string",
          "name": "name",
          "type": "string"
        }
      ],
      "name": "addCandidate",
      "outputs": [],
      "stateMutability": "nonpayable",
      "type": "function"
    },
    {
      "inputs": [],
      "name": "admin",
      "outputs": [
        {
          "internalType": "address",
          "name": "",
          "type": "address"
        }
      ],
      "stateMutability": "view",
      "type": "function"
    },
    {
      "inputs": [
        {
          "internalType": "uint256",
          "name": "",
          "type": "uint256"
        }
      ],
      "name": "candidates",
      "outputs": [
        {
          "internalType": "string",
          "name": "name",
          "type": "string"
        },
        {
          "internalType": "uint256",
          "name": "voteCount",
          "type": "uint256"
        }
      ],
      "stateMutability": "view",
      "type": "function"
    },
    {
      "inputs": [],
      "name": "electionActive",
      "outputs": [
        {
          "internalType": "bool",
          "name": "",
          "type": "bool"
        }
      ],
      "stateMutability": "view",
      "type": "function"
    },
    {
      "inputs": [],
      "name": "endElection",
      "outputs": [],
      "stateMutability": "nonpayable",
      "type": "function"
    },
    {
      "inputs": [
        {
          "internalType": "uint256",
          "name": "index",
          "type": "uint256"
        }
      ],
      "name": "getCandidate",
      "outputs": [
        {
          "internalType": "string",
          "name": "name",
          "type": "string"
        },
        {
          "internalType": "uint256",
          "name": "votes",
          "type": "uint256"
        }
      ],
      "stateMutability": "view",
      "type": "function"
    },
    {
      "inputs": [],
      "name": "getCandidateCount",
      "outputs": [
        {
          "internalType": "uint256",
          "name": "",
          "type": "uint256"
        }
      ],
      "stateMutability": "view",
      "type": "function"
    },
    {
      "inputs": [
        {
          "internalType": "address",
          "name": "",
          "type": "address"
        }
      ],
      "name": "hasVoted",
      "outputs": [
        {
          "internalType": "bool",
          "name": "",
          "type": "bool"
        }
      ],
      "stateMutability": "view",
      "type": "function"
    },
    {
      "inputs": [],
      "name": "startElection",
      "outputs": [],
      "stateMutability": "nonpayable",
      "type": "function"
    },
    {
      "inputs": [
        {
          "internalType": "uint256",
          "name": "candidateId",
          "type": "uint256"
        }
      ],
      "name": "vote",
      "outputs": [],
      "stateMutability": "nonpayable",
      "type": "function"
    }
  ],
  "bytecode": "0x608060405234801561001057600080fd5b50604051611c84380380611c8483398181016040528101906100329190610403565b336000806101000a81548173ffffffffffffffffffffffffffffffffffffffff021916908373ffffffffffffffffffffffffffffffffffffffff16021790555060005b815181101561015a576001604051806040016040528084848151811061009e5761009d61044c565b5b602002602001015181526020016000815250908060018154018082558091505060019003906000526020600020906002020160009091909190915060008201518160000190816100ee919061069c565b50602082015181600101555050807fe83b2a43e7e82d975c8a0a6d2f045153c869e111136a34d1889ab7b598e396a38383815181106101305761012f61044c565b5b602002602001015160405161014591906107b8565b60405180910390a28080600101915050610075565b506001600060146101000a81548160ff0219169083151502179055507fc475c26aa25ed8e85a7faa790e5f63b5d7ee1025f12821f4c9bfddd36ab4d11260405160405180910390a1506107da565b6000604051905090565b600080fd5b600080fd5b600080fd5b6000601f19601f8301169050919050565b7f4e487b7100000000000000000000000000000000000000000000000000000000600052604160045260246000fd5b61020a826101c1565b810181811067ffffffffffffffff82111715610229576102286101d2565b5b80604052505050565b600061023c6101a8565b90506102488282610201565b919050565b600067ffffffffffffffff821115610268576102676101d2565b5b602082029050602081019050919050565b600080fd5b600080fd5b600067ffffffffffffffff82111561029e5761029d6101d2565b5b6102a7826101c1565b9050602081019050919050565b60005b838110156102d25780820151818401526020810190506102b7565b60008484015250505050565b60006102f16102ec84610283565b610232565b90508281526020810184848401111561030d5761030c61027e565b5b6103188482856102b4565b509392505050565b600082601f830112610335576103346101bc565b5b81516103458482602086016102de565b91505092915050565b600061036161035c8461024d565b610232565b9050808382526020820190506020840283018581111561038457610383610279565b5b835b818110156103cb57805167ffffffffffffffff8111156103a9576103a86101bc565b5b8086016103b68982610320565b85526020850194505050602081019050610386565b5050509392505050565b600082601f8301126103ea576103e96101bc565b5b81516103fa84826020860161034e565b91505092915050565b600060208284031215610419576104186101b2565b5b600082015167ffffffffffffffff811115610437576104366101b7565b5b610443848285016103d5565b91505092915050565b7f4e487b7100000000000000000000000000000000000000000000000000000000600052603260045260246000fd5b600081519050919050565b7f4e487b7100000000000000000000000000000000000000000000000000000000600052602260045260246000fd5b600060028204905060018216806104cd57607f821691505b6020821081036104e0576104df610486565b5b50919050565b60008190508160005260206000209050919050565b60006020601f8301049050919050565b600082821b905092915050565b6000600883026105487fffffffffffffffffffffffffffffffffffffffffffffffffffffffffffffffff8261050b565b610552868361050b565b95508019841693508086168417925050509392505050565b6000819050919050565b6000819050919050565b600061059961059461058f8461056a565b610574565b61056a565b9050919050565b6000819050919050565b6105b38361057e565b6105c76105bf826105a0565b848454610518565b825550505050565b600090565b6105dc6105cf565b6105e78184846105aa565b505050565b5b8181101561060b576106006000826105d4565b6001810190506105ed565b5050565b601f82111561065057610621816104e6565b61062a846104fb565b81016020851015610639578190505b61064d610645856104fb565b8301826105ec565b50505b505050565b600082821c905092915050565b600061067360001984600802610655565b1980831691505092915050565b600061068c8383610662565b9150826002028217905092915050565b6106a58261047b565b67ffffffffffffffff8111156106be576106bd6101d2565b5b6106c882546104b5565b6106d382828561060f565b600060209050601f83116001811461070657600084156106f4578287015190505b6106fe8582610680565b865550610766565b601f198416610714866104e6565b60005b8281101561073c57848901518255600182019150602085019450602081019050610717565b868310156107595784890151610755601f891682610662565b8355505b6001600288020188555050505b505050505050565b600082825260208201905092915050565b600061078a8261047b565b610794818561076e565b93506107a48185602086016102b4565b6107ad816101c1565b840191505092915050565b600060208201905081810360008301526107d2818461077f565b905092915050565b61149b806107e96000396000f3fe608060405234801561001057600080fd5b506004361061009e5760003560e01c8063462e91ec11610066578063462e91ec1461016f57806359f784681461018b57806362d73eb8146101955780637ed628bb1461019f578063f851a440146101bd5761009e565b80630121b93f146100a357806309eef43e146100bf57806330a56347146100ef5780633477ee2e1461010d57806335b8e8201461013e575b600080fd5b6100bd60048036038101906100b89190610a2b565b6101db565b005b6100d960048036038101906100d49190610ab6565b6103d9565b6040516100e69190610afe565b60405180910390f35b6100f76103f9565b6040516101049190610b28565b60405180910390f35b61012760048036038101906101229190610a2b565b610406565b604051610135929190610bd3565b60405180910390f35b61015860048036038101906101539190610a2b565b6104c2565b604051610166929190610bd3565b60405180910390f35b61018960048036038101906101849190610d38565b6105d2565b005b61019361075e565b005b61019d610883565b005b6101a76109aa565b6040516101b49190610afe565b60405180910390f35b6101c56109bd565b6040516101d29190610d90565b60405180910390f35b600060149054906101000a900460ff1661022a576040517f08c379a000000000000000000000000000000000000000000000000000000000815260040161022190610df7565b60405180910390fd5b600260003373ffffffffffffffffffffffffffffffffffffffff1673ffffffffffffffffffffffffffffffffffffffff16815260200190815260200160002060009054906101000a900460ff16156102b7576040517f08c379a00000000000000000000000000000000000000000000000000000000081526004016102ae90610e63565b60405180910390fd5b60018054905081106102fe576040517f08c379a00000000000000000000000000000000000000000000000000000000081526004016102f590610ecf565b60405180910390fd5b6001600260003373ffffffffffffffffffffffffffffffffffffffff1673ffffffffffffffffffffffffffffffffffffffff16815260200190815260200160002060006101000a81548160ff021916908315150217905550600180828154811061036b5761036a610eef565b5b9060005260206000209060020201600101600082825461038b9190610f4d565b92505081905550803373ffffffffffffffffffffffffffffffffffffffff167f4d99b957a2bc29a30ebd96a7be8e68fe50a3c701db28a91436490b7d53870ca460405160405180910390a350565b60026020528060005260406000206000915054906101000a900460ff1681565b6000600180549050905090565b6001818154811061041657600080fd5b906000526020600020906002020160009150905080600001805461043990610fb0565b80601f016020809104026020016040519081016040528092919081815260200182805461046590610fb0565b80156104b25780601f10610487576101008083540402835291602001916104b2565b820191906000526020600020905b81548152906001019060200180831161049557829003601f168201915b5050505050908060010154905082565b60606000600180549050831061050d576040517f08c379a000000000000000000000000000000000000000000000000000000000815260040161050490610ecf565b60405180910390fd5b60006001848154811061052357610522610eef565b5b9060005260206000209060020201905080600001816001015481805461054890610fb0565b80601f016020809104026020016040519081016040528092919081815260200182805461057490610fb0565b80156105c15780601f10610596576101008083540402835291602001916105c1565b820191906000526020600020905b8154815290600101906020018083116105a457829003601f168201915b505050505091509250925050915091565b60008054906101000a900473ffffffffffffffffffffffffffffffffffffffff1673ffffffffffffffffffffffffffffffffffffffff163373ffffffffffffffffffffffffffffffffffffffff1614610660576040517f08c379a00000000000000000000000000000000000000000000000000000000081526004016106579061102d565b60405180910390fd5b600060149054906101000a900460ff16156106b0576040517f08c379a00000000000000000000000000000000000000000000000000000000081526004016106a790611099565b60405180910390fd5b600160405180604001604052808381526020016000815250908060018154018082558091505060019003906000526020600020906002020160009091909190915060008201518160000190816107069190611265565b50602082015181600101555050600180805490506107249190611337565b7fe83b2a43e7e82d975c8a0a6d2f045153c869e111136a34d1889ab7b598e396a382604051610753919061136b565b60405180910390a250565b60008054906101000a900473ffffffffffffffffffffffffffffffffffffffff1673ffffffffffffffffffffffffffffffffffffffff163373ffffffffffffffffffffffffffffffffffffffff16146107ec576040517f08c379a00000000000000000000000000000000000000000000000000000000081526004016107e39061102d565b60405180910390fd5b600060149054906101000a900460ff1661083b576040517f08c379a0000000000000000000000000000000000000000000000000000000008152600401610832906113d9565b60405180910390fd5b60008060146101000a81548160ff0219169083151502179055507f66ec723071e4bb646f7b35d31bc2dee8510979bd8c180edd0690d4f5e802f1e460405160405180910390a1565b60008054906101000a900473ffffffffffffffffffffffffffffffffffffffff1673ffffffffffffffffffffffffffffffffffffffff163373ffffffffffffffffffffffffffffffffffffffff1614610911576040517f08c379a00000000000000000000000000000000000000000000000000000000081526004016109089061102d565b60405180910390fd5b600060149054906101000a900460ff1615610961576040517f08c379a000000000000000000000000000000000000000000000000000000000815260040161095890611445565b60405180910390fd5b6001600060146101000a81548160ff0219169083151502179055507fc475c26aa25ed8e85a7faa790e5f63b5d7ee1025f12821f4c9bfddd36ab4d11260405160405180910390a1565b600060149054906101000a900460ff1681565b60008054906101000a900473ffffffffffffffffffffffffffffffffffffffff1681565b6000604051905090565b600080fd5b600080fd5b6000819050919050565b610a08816109f5565b8114610a1357600080fd5b50565b600081359050610a25816109ff565b92915050565b600060208284031215610a4157610a406109eb565b5b6000610a4f84828501610a16565b91505092915050565b600073ffffffffffffffffffffffffffffffffffffffff82169050919050565b6000610a8382610a58565b9050919050565b610a9381610a78565b8114610a9e57600080fd5b50565b600081359050610ab081610a8a565b92915050565b600060208284031215610acc57610acb6109eb565b5b6000610ada84828501610aa1565b91505092915050565b60008115159050919050565b610af881610ae3565b82525050565b6000602082019050610b136000830184610aef565b92915050565b610b22816109f5565b82525050565b6000602082019050610b3d6000830184610b19565b92915050565b600081519050919050565b600082825260208201905092915050565b60005b83811015610b7d578082015181840152602081019050610b62565b60008484015250505050565b6000601f19601f8301169050919050565b6000610ba582610b43565b610baf8185610b4e565b9350610bbf818560208601610b5f565b610bc881610b89565b840191505092915050565b60006040820190508181036000830152610bed8185610b9a565b9050610bfc6020830184610b19565b9392505050565b600080fd5b600080fd5b7f4e487b7100000000000000000000000000000000000000000000000000000000600052604160045260246000fd5b610c4582610b89565b810181811067ffffffffffffffff82111715610c6457610c63610c0d565b5b80604052505050565b6000610c776109e1565b9050610c838282610c3c565b919050565b600067ffffffffffffffff821115610ca357610ca2610c0d565b5b610cac82610b89565b9050602081019050919050565b82818337600083830152505050565b6000610cdb610cd684610c88565b610c6d565b905082815260208101848484011115610cf757610cf6610c08565b5b610d02848285610cb9565b509392505050565b600082601f830112610d1f57610d1e610c03565b5b8135610d2f848260208601610cc8565b91505092915050565b600060208284031215610d4e57610d4d6109eb565b5b600082013567ffffffffffffffff811115610d6c57610d6b6109f0565b5b610d7884828501610d0a565b91505092915050565b610d8a81610a78565b82525050565b6000602082019050610da56000830184610d81565b92915050565b7f456c656374696f6e206e6f742061637469766500000000000000000000000000600082015250565b6000610de1601383610b4e565b9150610dec82610dab565b602082019050919050565b60006020820190508181036000830152610e1081610dd4565b9050919050565b7f416c726561647920766f74656400000000000000000000000000000000000000600082015250565b6000610e4d600d83610b4e565b9150610e5882610e17565b602082019050919050565b60006020820190508181036000830152610e7c81610e40565b9050919050565b7f496e76616c69642063616e646964617465000000000000000000000000000000600082015250565b6000610eb9601183610b4e565b9150610ec482610e83565b602082019050919050565b60006020820190508181036000830152610ee881610eac565b9050919050565b7f4e487b7100000000000000000000000000000000000000000000000000000000600052603260045260246000fd5b7f4e487b7100000000000000000000000000000000000000000000000000000000600052601160045260246000fd5b6000610f58826109f5565b9150610f63836109f5565b9250828201905080821115610f7b57610f7a610f1e565b5b92915050565b7f4e487b7100000000000000000000000000000000000000000000000000000000600052602260045260246000fd5b60006002820490506001821680610fc857607f821691505b602082108103610fdb57610fda610f81565b5b50919050565b7f4e6f742061646d696e0000000000000000000000000000000000000000000000600082015250565b6000611017600983610b4e565b915061102282610fe1565b602082019050919050565b600060208201905081810360008301526110468161100a565b9050919050565b7f456e6420656c656374696f6e20746f206164642063616e646964617465730000600082015250565b6000611083601e83610b4e565b915061108e8261104d565b602082019050919050565b600060208201905081810360008301526110b281611076565b9050919050565b60008190508160005260206000209050919050565b60006020601f8301049050919050565b600082821b905092915050565b60006008830261111b7fffffffffffffffffffffffffffffffffffffffffffffffffffffffffffffffff826110de565b61112586836110de565b95508019841693508086168417925050509392505050565b6000819050919050565b600061116261115d611158846109f5565b61113d565b6109f5565b9050919050565b6000819050919050565b61117c83611147565b61119061118882611169565b8484546110eb565b825550505050565b600090565b6111a5611198565b6111b0818484611173565b505050565b5b818110156111d4576111c960008261119d565b6001810190506111b6565b5050565b601f821115611219576111ea816110b9565b6111f3846110ce565b81016020851015611202578190505b61121661120e856110ce565b8301826111b5565b50505b505050565b600082821c905092915050565b600061123c6000198460080261121e565b1980831691505092915050565b6000611255838361122b565b9150826002028217905092915050565b61126e82610b43565b67ffffffffffffffff81111561128757611286610c0d565b5b6112918254610fb0565b61129c8282856111d8565b600060209050601f8311600181146112cf57600084156112bd578287015190505b6112c78582611249565b86555061132f565b601f1984166112dd866110b9565b60005b82811015611305578489015182556001820191506020850194506020810190506112e0565b86831015611322578489015161131e601f89168261122b565b8355505b6001600288020188555050505b505050505050565b6000611342826109f5565b915061134d836109f5565b925082820390508181111561136557611364610f1e565b5b92915050565b600060208201905081810360008301526113858184610b9a565b905092915050565b7f416c726561647920656e64656400000000000000000000000000000000000000600082015250565b60006113c3600d83610b4e565b91506113ce8261138d565b602082019050919050565b600060208201905081810360008301526113f2816113b6565b9050919050565b7f416c726561647920616374697665000000000000000000000000000000000000600082015250565b600061142f600e83610b4e565b915061143a826113f9565b602082019050919050565b6000602082019050818103600083015261145e81611422565b905091905056fea26469706673582212207fb19352e59aeed5828ffe258361c14fd47891f5a7161d8ba8b3f2e01d73439464736f6c634300081c0033",
  "linkReferences": {},
  "deployedLinkReferences": {}
}