{
  "_format": "hh-sol-artifact-1",
  "contractName": "Voting",
  "sourceName": "contracts/Voting.sol",
  "abi": [
    {
      "inputs": [],
      "stateMutability": "nonpayable",
      "type": "constructor"
    },
    {
      "anonymous": false,
      "inputs": [
        {
          "indexed": true,
          "internalType": "uint256",
          "name": "candidateId",
          "type": "uint256"
        },
        {
          "indexed": false,
          "internalType": "string",
          "name": "name",
          "type": "string"
        }
      ],
      "name": "CandidateAdded",
      "type": "event"
    },
    {
      "anonymous": false,
      "inputs": [],
      "name": "ElectionEnded",
      "type": "event"
    },
    {
      "anonymous": false,
      "inputs": [],
      "name": "ElectionStarted",
      "type": "event"
    },
    {
      "anonymous": false,
      "inputs": [
        {
          "indexed": true,
          "internalType": "address",
          "name": "voter",
          "type": "address"
        },
        {
          "indexed": true,
          "internalType": "uint256",
          "name": "candidateId",
          "type": "uint256"
        }
      ],
      "name": "Voted",
      "type": "event"
    },
    {
      "inputs": [
        {
          "internalType": "string",
          "name": "name",
          "type": "string"
        }
      ],
      "name": "addCandidate",
      "outputs": [],
      "stateMutability": "nonpayable",
      "type": "function"
    },
    {
      "inputs": [],
      "name": "admin",
      "outputs": [
        {
          "internalType": "address",
          "name": "",
          "type": "address"
        }
      ],
      "stateMutability": "view",
      "type": "function"
    },
    {
      "inputs": [
        {
          "internalType": "uint256",
          "name": "",
          "type": "uint256"
        }
      ],
      "name": "candidates",
      "outputs": [
        {
          "internalType": "string",
          "name": "name",
          "type": "string"
        },
        {
          "internalType": "uint256",
          "name": "voteCount",
          "type": "uint256"
        }
      ],
      "stateMutability": "view",
      "type": "function"
    },
    {
      "inputs": [],
      "name": "electionActive",
      "outputs": [
        {
          "internalType": "bool",
          "name": "",
          "type": "bool"
        }
      ],
      "stateMutability": "view",
      "type": "function"
    },
    {
      "inputs": [],
      "name": "endElection",
      "outputs": [],
      "stateMutability": "nonpayable",
      "type": "function"
    },
    {
      "inputs": [
        {
          "internalType": "uint256",
          "name": "index",
          "type": "uint256"
        }
      ],
      "name": "getCandidate",
      "outputs": [
        {
          "internalType": "string",
          "name": "name",
          "type": "string"
        },
        {
          "internalType": "uint256",
          "name": "votes",
          "type": "uint256"
        }
      ],
      "stateMutability": "view",
      "type": "function"
    },
    {
      "inputs": [],
      "name": "getCandidateCount",
      "outputs": [
        {
          "internalType": "uint256",
          "name": "",
          "type": "uint256"
        }
      ],
      "stateMutability": "view",
      "type": "function"
    },
    {
      "inputs": [
        {
          "internalType": "address",
          "name": "",
          "type": "address"
        }
      ],
      "name": "hasVoted",
      "outputs": [
        {
          "internalType": "bool",
          "name": "",
          "type": "bool"
        }
      ],
      "stateMutability": "view",
      "type": "function"
    },
    {
      "inputs": [],
      "name": "startElection",
      "outputs": [],
      "stateMutability": "nonpayable",
      "type": "function"
    },
    {
      "inputs": [
        {
          "internalType": "uint256",
          "name": "candidateId",
          "type": "uint256"
        }
      ],
      "name": "vote",
      "outputs": [],
      "stateMutability": "nonpayable",
      "type": "function"
    }
  ],
  "bytecode": "0x6080604052348015600f57600080fd5b50336000806101000a81548173ffffffffffffffffffffffffffffffffffffffff021916908373ffffffffffffffffffffffffffffffffffffffff16021790555060008060146101000a81548160ff021916908315150217905550611575806100796000396000f3fe608060405234801561001057600080fd5b506004361061009e5760003560e01c8063462e91ec11610066578063462e91ec1461016f57806359f784681461018b57806362d73eb8146101955780637ed628bb1461019f578063f851a440146101bd5761009e565b80630121b93f146100a357806309eef43e146100bf57806330a56347146100ef5780633477ee2e1461010d57806335b8e8201461013e575b600080fd5b6100bd60048036038101906100b89190610a73565b6101db565b005b6100d960048036038101906100d49190610afe565b6103d9565b6040516100e69190610b46565b60405180910390f35b6100f76103f9565b6040516101049190610b70565b60405180910390f35b61012760048036038101906101229190610a73565b610406565b604051610135929190610c1b565b60405180910390f35b61015860048036038101906101539190610a73565b6104c2565b604051610166929190610c1b565b60405180910390f35b61018960048036038101906101849190610d80565b6105d2565b005b61019361075e565b005b61019d610883565b005b6101a76109f2565b6040516101b49190610b46565b60405180910390f35b6101c5610a05565b6040516101d29190610dd8565b60405180910390f35b600060149054906101000a900460ff1661022a576040517f08c379a000000000000000000000000000000000000000000000000000000000815260040161022190610e3f565b60405180910390fd5b600260003373ffffffffffffffffffffffffffffffffffffffff1673ffffffffffffffffffffffffffffffffffffffff16815260200190815260200160002060009054906101000a900460ff16156102b7576040517f08c379a00000000000000000000000000000000000000000000000000000000081526004016102ae90610eab565b60405180910390fd5b60018054905081106102fe576040517f08c379a00000000000000000000000000000000000000000000000000000000081526004016102f590610f17565b60405180910390fd5b6001600260003373ffffffffffffffffffffffffffffffffffffffff1673ffffffffffffffffffffffffffffffffffffffff16815260200190815260200160002060006101000a81548160ff021916908315150217905550600180828154811061036b5761036a610f37565b5b9060005260206000209060020201600101600082825461038b9190610f95565b92505081905550803373ffffffffffffffffffffffffffffffffffffffff167f4d99b957a2bc29a30ebd96a7be8e68fe50a3c701db28a91436490b7d53870ca460405160405180910390a350565b60026020528060005260406000206000915054906101000a900460ff1681565b6000600180549050905090565b6001818154811061041657600080fd5b906000526020600020906002020160009150905080600001805461043990610ff8565b80601f016020809104026020016040519081016040528092919081815260200182805461046590610ff8565b80156104b25780601f10610487576101008083540402835291602001916104b2565b820191906000526020600020905b81548152906001019060200180831161049557829003601f168201915b5050505050908060010154905082565b60606000600180549050831061050d576040517f08c379a000000000000000000000000000000000000000000000000000000000815260040161050490610f17565b60405180910390fd5b60006001848154811061052357610522610f37565b5b9060005260206000209060020201905080600001816001015481805461054890610ff8565b80601f016020809104026020016040519081016040528092919081815260200182805461057490610ff8565b80156105c15780601f10610596576101008083540402835291602001916105c1565b820191906000526020600020905b8154815290600101906020018083116105a457829003601f168201915b505050505091509250925050915091565b60008054906101000a900473ffffffffffffffffffffffffffffffffffffffff1673ffffffffffffffffffffffffffffffffffffffff163373ffffffffffffffffffffffffffffffffffffffff1614610660576040517f08c379a000000000000000000000000000000000000000000000000000000000815260040161065790611075565b60405180910390fd5b600060149054906101000a900460ff16156106b0576040517f08c379a00000000000000000000000000000000000000000000000000000000081526004016106a790611107565b60405180910390fd5b6001604051806040016040528083815260200160008152509080600181540180825580915050600190039060005260206000209060020201600090919091909150600082015181600001908161070691906112d3565b506020820151816001015550506001808054905061072491906113a5565b7fe83b2a43e7e82d975c8a0a6d2f045153c869e111136a34d1889ab7b598e396a38260405161075391906113d9565b60405180910390a250565b60008054906101000a900473ffffffffffffffffffffffffffffffffffffffff1673ffffffffffffffffffffffffffffffffffffffff163373ffffffffffffffffffffffffffffffffffffffff16146107ec576040517f08c379a00000000000000000000000000000000000000000000000000000000081526004016107e390611075565b60405180910390fd5b600060149054906101000a900460ff1661083b576040517f08c379a000000000000000000000000000000000000000000000000000000000815260040161083290611447565b60405180910390fd5b60008060146101000a81548160ff0219169083151502179055507f66ec723071e4bb646f7b35d31bc2dee8510979bd8c180edd0690d4f5e802f1e460405160405180910390a1565b60008054906101000a900473ffffffffffffffffffffffffffffffffffffffff1673ffffffffffffffffffffffffffffffffffffffff163373ffffffffffffffffffffffffffffffffffffffff1614610911576040517f08c379a000000000000000000000000000000000000000000000000000000000815260040161090890611075565b60405180910390fd5b600060149054906101000a900460ff1615610961576040517f08c379a0000000000000000000000000000000000000000000000000000000008152600401610958906114b3565b60405180910390fd5b6000600180549050116109a9576040517f08c379a00000000000000000000000000000000000000000000000000000000081526004016109a09061151f565b60405180910390fd5b6001600060146101000a81548160ff0219169083151502179055507fc475c26aa25ed8e85a7faa790e5f63b5d7ee1025f12821f4c9bfddd36ab4d11260405160405180910390a1565b600060149054906101000a900460ff1681565b60008054906101000a900473ffffffffffffffffffffffffffffffffffffffff1681565b6000604051905090565b600080fd5b600080fd5b6000819050919050565b610a5081610a3d565b8114610a5b57600080fd5b50565b600081359050610a6d81610a47565b92915050565b600060208284031215610a8957610a88610a33565b5b6000610a9784828501610a5e565b91505092915050565b600073ffffffffffffffffffffffffffffffffffffffff82169050919050565b6000610acb82610aa0565b9050919050565b610adb81610ac0565b8114610ae657600080fd5b50565b600081359050610af881610ad2565b92915050565b600060208284031215610b1457610b13610a33565b5b6000610b2284828501610ae9565b91505092915050565b60008115159050919050565b610b4081610b2b565b82525050565b6000602082019050610b5b6000830184610b37565b92915050565b610b6a81610a3d565b82525050565b6000602082019050610b856000830184610b61565b92915050565b600081519050919050565b600082825260208201905092915050565b60005b83811015610bc5578082015181840152602081019050610baa565b60008484015250505050565b6000601f19601f8301169050919050565b6000610bed82610b8b565b610bf78185610b96565b9350610c07818560208601610ba7565b610c1081610bd1565b840191505092915050565b60006040820190508181036000830152610c358185610be2565b9050610c446020830184610b61565b9392505050565b600080fd5b600080fd5b7f4e487b7100000000000000000000000000000000000000000000000000000000600052604160045260246000fd5b610c8d82610bd1565b810181811067ffffffffffffffff82111715610cac57610cab610c55565b5b80604052505050565b6000610cbf610a29565b9050610ccb8282610c84565b919050565b600067ffffffffffffffff821115610ceb57610cea610c55565b5b610cf482610bd1565b9050602081019050919050565b82818337600083830152505050565b6000610d23610d1e84610cd0565b610cb5565b905082815260208101848484011115610d3f57610d3e610c50565b5b610d4a848285610d01565b509392505050565b600082601f830112610d6757610d66610c4b565b5b8135610d77848260208601610d10565b91505092915050565b600060208284031215610d9657610d95610a33565b5b600082013567ffffffffffffffff811115610db457610db3610a38565b5b610dc084828501610d52565b91505092915050565b610dd281610ac0565b82525050565b6000602082019050610ded6000830184610dc9565b92915050565b7f456c656374696f6e206e6f742061637469766500000000000000000000000000600082015250565b6000610e29601383610b96565b9150610e3482610df3565b602082019050919050565b60006020820190508181036000830152610e5881610e1c565b9050919050565b7f416c726561647920766f74656400000000000000000000000000000000000000600082015250565b6000610e95600d83610b96565b9150610ea082610e5f565b602082019050919050565b60006020820190508181036000830152610ec481610e88565b9050919050565b7f496e76616c69642063616e646964617465000000000000000000000000000000600082015250565b6000610f01601183610b96565b9150610f0c82610ecb565b602082019050919050565b60006020820190508181036000830152610f3081610ef4565b9050919050565b7f4e487b7100000000000000000000000000000000000000000000000000000000600052603260045260246000fd5b7f4e487b7100000000000000000000000000000000000000000000000000000000600052601160045260246000fd5b6000610fa082610a3d565b9150610fab83610a3d565b9250828201905080821115610fc357610fc2610f66565b5b92915050565b7f4e487b7100000000000000000000000000000000000000000000000000000000600052602260045260246000fd5b6000600282049050600182168061101057607f821691505b60208210810361102357611022610fc9565b5b50919050565b7f4e6f742061646d696e0000000000000000000000000000000000000000000000600082015250565b600061105f600983610b96565b915061106a82611029565b602082019050919050565b6000602082019050818103600083015261108e81611052565b9050919050565b7f43616e6e6f7420616464207768696c6520656c656374696f6e2069732061637460008201527f6976650000000000000000000000000000000000000000000000000000000000602082015250565b60006110f1602383610b96565b91506110fc82611095565b604082019050919050565b60006020820190508181036000830152611120816110e4565b9050919050565b60008190508160005260206000209050919050565b60006020601f8301049050919050565b600082821b905092915050565b6000600883026111897fffffffffffffffffffffffffffffffffffffffffffffffffffffffffffffffff8261114c565b611193868361114c565b95508019841693508086168417925050509392505050565b6000819050919050565b60006111d06111cb6111c684610a3d565b6111ab565b610a3d565b9050919050565b6000819050919050565b6111ea836111b5565b6111fe6111f6826111d7565b848454611159565b825550505050565b600090565b611213611206565b61121e8184846111e1565b505050565b5b818110156112425761123760008261120b565b600181019050611224565b5050565b601f8211156112875761125881611127565b6112618461113c565b81016020851015611270578190505b61128461127c8561113c565b830182611223565b50505b505050565b600082821c905092915050565b60006112aa6000198460080261128c565b1980831691505092915050565b60006112c38383611299565b9150826002028217905092915050565b6112dc82610b8b565b67ffffffffffffffff8111156112f5576112f4610c55565b5b6112ff8254610ff8565b61130a828285611246565b600060209050601f83116001811461133d576000841561132b578287015190505b61133585826112b7565b86555061139d565b601f19841661134b86611127565b60005b828110156113735784890151825560018201915060208501945060208101905061134e565b86831015611390578489015161138c601f891682611299565b8355505b6001600288020188555050505b505050505050565b60006113b082610a3d565b91506113bb83610a3d565b92508282039050818111156113d3576113d2610f66565b5b92915050565b600060208201905081810360008301526113f38184610be2565b905092915050565b7f416c726561647920656e64656400000000000000000000000000000000000000600082015250565b6000611431600d83610b96565b915061143c826113fb565b602082019050919050565b6000602082019050818103600083015261146081611424565b9050919050565b7f416c726561647920616374697665000000000000000000000000000000000000600082015250565b600061149d600e83610b96565b91506114a882611467565b602082019050919050565b600060208201905081810360008301526114cc81611490565b9050919050565b7f4e6f2063616e6469646174657320616464656400000000000000000000000000600082015250565b6000611509601383610b96565b9150611514826114d3565b602082019050919050565b60006020820190508181036000830152611538816114fc565b905091905056fea26469706673582212208dc187e6bfb4ab3e42116e7c325e545176fe4906855439bc27aa142394bf796264736f6c634300081c0033",
  "linkReferences": {},
  "deployedLinkReferences": {}
}